:100000000C945D000C9441030C941A030C9485002D
:100010000C9485000C9485000C9485000C9485004C
:100020000C9485000C9485000C9485000C9485003C
:100030000C9485000C9485000C9485000C9485002C
:100040000C94D0020C9485000C949E020C947802BF
:100050000C9485000C9485000C9485000C9485000C
:100060000C9485000C9485000000000025002800F9
:100070002B0000000008000201000003040700003C
:1000800000000000000000000000240027002A00FB
:10009000010204081020408001020408102001021F
:1000A00004081020040404040404040402020202EC
:1000B0000202030303030303680311241FBECFEFEF
:1000C000D8E0DEBFCDBF11E0A0E0B1E0E0EBFAE0A8
:1000D00002C005900D92A434B107D9F722E0A4E440
:1000E000B1E001C01D92A630B207E1F710E0CDE506
:1000F000D0E004C02197FE010E945005CC35D10705
:10010000C9F70E94B6030C9456050C940000AF92F8
:10011000BF92CF92DF92EF92FF920F931F93CF93F4
:10012000DF936C017B018B01040F151FEB015E0156
:10013000AE18BF08C017D10759F06991D601ED91EB
:10014000FC910190F081E02DC6010995892B79F78A
:10015000C501DF91CF911F910F91FF90EF90DF903C
:10016000CF90BF90AF900895FC01538D448D252F03
:1001700030E0842F90E0821B930B541710F0CF9641
:10018000089501970895FC01918D828D981761F073
:10019000A28DAE0FBF2FB11D5D968C91928D9F5F8A
:1001A0009F73928F90E008958FEF9FEF0895FC0169
:1001B000918D828D981731F0828DE80FF11D858D1C
:1001C00090E008958FEF9FEF0895FC01918D228DAF
:1001D000892F90E0805C9F4F821B91098F73992734
:1001E00008958EE491E00E94E50021E0892B09F456
:1001F00020E0822F089580E090E0892B29F00E9472
:10020000F10081110C9400000895FC01A48DA80F49
:10021000B92FB11DA35ABF4F2C91848D90E0019648
:100220008F739927848FA689B7892C93A089B18968
:100230008C91837080648C93938D848D981306C009
:100240000288F389E02D80818F7D80830895EF926D
:10025000FF920F931F93CF93DF93EC0181E0888F80
:100260009B8D8C8D98131AC0E889F989808185FF50
:1002700015C09FB7F894EE89FF896083E889F989F2
:1002800080818370806480839FBF81E090E0DF91F4
:10029000CF911F910F91FF90EF900895F62E0B8D47
:1002A00010E00F5F1F4F0F731127E02E8C8D8E1102
:1002B0000CC00FB607FCFACFE889F989808185FF69
:1002C000F5CFCE010E940501F1CFEB8DEC0FFD2F94
:1002D000F11DE35AFF4FF0829FB7F8940B8FEA8924
:1002E000FB8980818062CFCFCF93DF93EC01888D33
:1002F0008823B9F0AA89BB89E889F9898C9185FDA1
:1003000003C0808186FD0DC00FB607FCF7CF8C912E
:1003100085FFF2CF808185FFEDCFCE010E940501E0
:10032000E9CFDF91CF91089590E0FC01EE58FF4FA7
:100330002491FC01E057FF4F3491FC01EC55FF4F35
:10034000E491EE23C9F0222339F0233001F1A8F41F
:10035000213019F1223029F1F0E0EE0FFF1FE859AA
:10036000FF4FA591B4918FB7F894EC91611126C01D
:1003700030953E233C938FBF08952730A9F0283055
:10038000C9F0243049F7809180008F7D03C08091AF
:1003900080008F7780938000DFCF84B58F7784BD16
:1003A000DBCF84B58F7DFBCF8091B0008F778093BA
:1003B000B000D2CF8091B0008F7DF9CF3E2BDACF45
:1003C000CF93DF9390E0FC01E057FF4F24918C55D1
:1003D0009F4FFC0184918823D1F090E0880F991FF2
:1003E000FC01EA57FF4FA591B491FC01E859FF4F7A
:1003F000C591D49161110EC09FB7F8948C91E22FF2
:10040000E0958E238C932881E223E8839FBFDF91C0
:10041000CF9108958FB7F894EC91E22BEC938FBFB6
:10042000F6CF08958EBD00000DB407FEFDCF8EB54A
:1004300008950F931F93CF93DF93D82F0CEE11E005
:10044000F801C381CC0FCE70C06460E082810E944D
:1004500094018C2F0E9412028D2F0E941202ED2F08
:10046000F0E0E451FE4F84810E94120261E0F80145
:100470008281DF91CF911F910F910C949401CF93C2
:1004800060E085E00E949401C091EF01CC0FCE7036
:10049000C16460E08091EE010E9494018C2F0E9463
:1004A000120282E10E9412028FEF0E9412028093D8
:1004B000020261E08091EE010E94940160910202CB
:1004C0006F776D3051F020F080EE860F803658F057
:1004D00061E085E0CF910C9494016AE08EE491E0B4
:1004E0000E9427016DE08EE491E00E942701F0CF89
:1004F0001F920F920FB60F9211242F933F934F9399
:100500005F936F937F938F939F93AF93BF93EF937B
:10051000FF938EE491E00E940501FF91EF91BF915E
:10052000AF919F918F917F916F915F914F913F918B
:100530002F910F900FBE0F901F9018951F920F9242
:100540000FB60F9211242F938F939F93EF93FF93E6
:10055000E0915E01F0915F018081E0916401F09192
:10056000650182FD1BC09081809167018F5F8F7351
:1005700020916801821741F0E0916701F0E0E25BB1
:10058000FE4F958F80936701FF91EF919F918F911F
:100590002F910F900FBE0F901F9018958081F4CF70
:1005A0001F920F920FB60F9211242F933F938F93A8
:1005B0009F93AF93BF938091490190914A01A0917D
:1005C0004B01B0914C013091480123E0230F2D37AE
:1005D00058F50196A11DB11D209348018093490152
:1005E00090934A01A0934B01B0934C018091440138
:1005F00090914501A0914601B09147010196A11D3E
:10060000B11D8093440190934501A0934601B0939E
:100610004701BF91AF919F918F913F912F910F9083
:100620000FBE0F901F90189526E8230F0296A11D6C
:10063000B11DD2CF1F920F920FB60F9211242F939C
:100640003F934F935F936F937F938F939F93AF935A
:10065000BF93EF93FF93E0910201F091030109959D
:10066000FF91EF91BF91AF919F918F917F916F918A
:100670005F914F913F912F910F900FBE0F901F9060
:1006800018951F920F920FB60F9211242F933F933C
:100690004F935F936F937F938F939F93AF93BF938A
:1006A000EF93FF93E0910001F09101010995FF9113
:1006B000EF91BF91AF919F918F917F916F915F91DA
:1006C0004F913F912F910F900FBE0F901F90189553
:1006D000EEE4F1E01382128288EE93E0A0E0B0E055
:1006E00084839583A683B78388E091E09183808398
:1006F00085EC90E09587848784EC90E097878687E7
:1007000080EC90E0918B808B81EC90E0938B828BDE
:1007100082EC90E0958B848B86EC90E0978B868BB7
:10072000118E128E138E148EECEEF1E08BEE91E0B2
:10073000918380838AE0828313828FEF8483858311
:1007400016821782108611861286138614861586E5
:1007500088E186878787108A118A128A138A148A09
:10076000158A168A178A108E118E0895789484B58A
:10077000826084BD84B5816084BD85B5826085BD9D
:1007800085B5816085BD80916E00816080936E002B
:10079000109281008091810082608093810080911D
:1007A00081008160809381008091800081608093CE
:1007B00080008091B10084608093B1008091B0008E
:1007C00081608093B00080917A00846080937A0089
:1007D00080917A00826080937A0080917A008160B3
:1007E00080937A0080917A00806880937A001092DA
:1007F000C100E0915E01F0915F0182E08083E091B1
:100800005A01F0915B011082E0915C01F0915D0171
:1008100080E1808310926601E0916201F0916301B2
:1008200086E08083E0916001F091610180818061C8
:100830008083E0916001F091610180818860808314
:10084000E0916001F0916101808180688083E09196
:100850006001F091610180818F7D808360E082E0A2
:100860000E94E00160E083E00E94E00161E084E03A
:100870000E94E00161E085E00E94E001CFB7F894BA
:1008800080914D01811127C0EEEAF0E08491EAE900
:10089000F0E09491E82FF0E0EE0FFF1FEA57FF4FD2
:1008A000A591B491EC91E92321F461E08AE00E94E2
:1008B000940161E08AE00E94E0018CB580618CBD0A
:1008C0008CB580648CBD61E08DE00E94E00161E048
:1008D0008BE00E94E00180914D018F5F80934D017C
:1008E000CFBF61E08091EE010E94E00161E0809164
:1008F000EE010E94940160E08091EE010E9494015B
:1009000080E40E9412028AE00E94120288E10E94A2
:10091000120261E08091EE010E949401C091EF010A
:10092000CC0FCE70C06460E08091EE010E94940113
:100930008C2F0E94120280E00E941202C0EFD1E0D0
:1009400006E012E089910E9412020C171D07D1F7F0
:1009500061E08091EE010E949401D0E0C0E0EE24BD
:10096000E394F12C87010C2E01C0000F0A94EAF7E2
:100970008091F001802B8093F00180E00E941902A9
:1009800000958091FC0108230093FC018CE00E94FB
:1009900019022196C730D10529F78091F0018068AE
:1009A0008093F00180E00E9419028091FC01806830
:1009B0008093FC018CE00E941902D0E0C0E001E0CD
:1009C00010E0C8010C2E01C0880F0A94EAF7809548
:1009D0009091F10189238093F10181E00E94190235
:1009E0002196C830D10569F78FE392E09093030117
:1009F00080930201809169008C6080936900E99A7C
:100A000049E250E066E171E08EE491E00E948700E7
:100A100042E050E060E471E08EE491E00E948700E3
:100A200061E085E00E94940183EEE82E83E0F82ED9
:100A300000E010E08EE491E00E94E500181619062F
:100A40002CF58EE491E00E94C300C82F60E084E0A2
:100A50000E949401CB3C09F4CBE18FE98C0F8A31E1
:100A600098F4C052C068C093050285E10E94190243
:100A700061E084E00E949401C7010197F1F760E012
:100A800084E00E94940102C0C03660F30115110594
:100A900089F20E94F100882369F20E940000CACF07
:100AA000EE0FFF1F0590F491E02D0994F894FFCF0D
:100AB000110211020000000027018700B400740138
:100AC000E500C300D7005243363530322041707004
:100AD0006C652031205265706C69636120287573E4
:100AE000696E6720696E746572727570747329001F
:040AF0000D0A0000EB
:00000001FF
